{
  "contractName": "ExampleSubscriber",
  "abi": [
    {
      "constant": true,
      "inputs": [],
      "name": "oracle",
      "outputs": [
        {
          "name": "",
          "type": "address"
        }
      ],
      "payable": false,
      "stateMutability": "view",
      "type": "function"
    },
    {
      "constant": true,
      "inputs": [],
      "name": "owner",
      "outputs": [
        {
          "name": "",
          "type": "address"
        }
      ],
      "payable": false,
      "stateMutability": "view",
      "type": "function"
    },
    {
      "inputs": [
        {
          "name": "_dispatch",
          "type": "address"
        },
        {
          "name": "_oracle",
          "type": "address"
        }
      ],
      "payable": false,
      "stateMutability": "nonpayable",
      "type": "constructor"
    },
    {
      "anonymous": false,
      "inputs": [
        {
          "indexed": false,
          "name": "queryId",
          "type": "uint256"
        },
        {
          "indexed": false,
          "name": "query",
          "type": "string"
        },
        {
          "indexed": false,
          "name": "endpoint",
          "type": "bytes32"
        },
        {
          "indexed": false,
          "name": "params",
          "type": "bytes32[]"
        }
      ],
      "name": "SentQuery",
      "type": "event"
    },
    {
      "anonymous": false,
      "inputs": [
        {
          "indexed": false,
          "name": "queryId",
          "type": "uint256"
        },
        {
          "indexed": false,
          "name": "result",
          "type": "string"
        }
      ],
      "name": "ReceivedResult",
      "type": "event"
    },
    {
      "constant": false,
      "inputs": [
        {
          "name": "query",
          "type": "string"
        },
        {
          "name": "endpoint",
          "type": "bytes32"
        },
        {
          "name": "params",
          "type": "bytes32[]"
        }
      ],
      "name": "sendQuery",
      "outputs": [],
      "payable": false,
      "stateMutability": "nonpayable",
      "type": "function"
    },
    {
      "constant": false,
      "inputs": [
        {
          "name": "id",
          "type": "uint256"
        },
        {
          "name": "response1",
          "type": "string"
        }
      ],
      "name": "callback",
      "outputs": [],
      "payable": false,
      "stateMutability": "nonpayable",
      "type": "function"
    }
  ],
  "bytecode": "0x608060405234801561001057600080fd5b5060405160408061067c8339810180604052810190808051906020019092919080519060200190929190505050816000806101000a81548173ffffffffffffffffffffffffffffffffffffffff021916908373ffffffffffffffffffffffffffffffffffffffff16021790555080600160006101000a81548173ffffffffffffffffffffffffffffffffffffffff021916908373ffffffffffffffffffffffffffffffffffffffff16021790555033600260006101000a81548173ffffffffffffffffffffffffffffffffffffffff021916908373ffffffffffffffffffffffffffffffffffffffff160217905550505061056c806101106000396000f300608060405260043610610062576000357c0100000000000000000000000000000000000000000000000000000000900463ffffffff1680631ebe559f146100675780637dc0d1d0146100c85780638da5cb5b1461011f578063b69a375d14610176575b600080fd5b34801561007357600080fd5b506100c660048036038101908080359060200190820180359060200191909192939192939080356000191690602001909291908035906020019082018035906020019190919293919293905050506101bb565b005b3480156100d457600080fd5b506100dd61043b565b604051808273ffffffffffffffffffffffffffffffffffffffff1673ffffffffffffffffffffffffffffffffffffffff16815260200191505060405180910390f35b34801561012b57600080fd5b50610134610461565b604051808273ffffffffffffffffffffffffffffffffffffffff1673ffffffffffffffffffffffffffffffffffffffff16815260200191505060405180910390f35b34801561018257600080fd5b506101b960048036038101908080359060200190929190803590602001908201803590602001919091929391929390505050610487565b005b6000600260009054906101000a900473ffffffffffffffffffffffffffffffffffffffff1673ffffffffffffffffffffffffffffffffffffffff163373ffffffffffffffffffffffffffffffffffffffff1614151561021957600080fd5b6000809054906101000a900473ffffffffffffffffffffffffffffffffffffffff1673ffffffffffffffffffffffffffffffffffffffff16639f77d600600160009054906101000a900473ffffffffffffffffffffffffffffffffffffffff168888888888600060016040518963ffffffff167c0100000000000000000000000000000000000000000000000000000000028152600401808973ffffffffffffffffffffffffffffffffffffffff1673ffffffffffffffffffffffffffffffffffffffff16815260200180602001876000191660001916815260200180602001851515151581526020018415151515815260200183810383528a8a828181526020019250808284378201915050838103825287878281815260200192506020028082843782019150509a5050505050505050505050602060405180830381600087803b15801561036857600080fd5b505af115801561037c573d6000803e3d6000fd5b505050506040513d602081101561039257600080fd5b810190808051906020019092919050505090507fd6336b4382ff12f7254fd0ef411f9f3f1f02bedfe490b4ea7b6aafeebe6397ac818787878787604051808781526020018060200185600019166000191681526020018060200183810383528888828181526020019250808284378201915050838103825285858281815260200192506020028082843782019150509850505050505050505060405180910390a1505050505050565b600160009054906101000a900473ffffffffffffffffffffffffffffffffffffffff1681565b600260009054906101000a900473ffffffffffffffffffffffffffffffffffffffff1681565b6000809054906101000a900473ffffffffffffffffffffffffffffffffffffffff1673ffffffffffffffffffffffffffffffffffffffff163373ffffffffffffffffffffffffffffffffffffffff161415156104e257600080fd5b7fcfe284827a2f0c355ffb3714b432d7bdf3997822a0a4d2e2474539034eaaf96e83838360405180848152602001806020018281038252848482818152602001925080828437820191505094505050505060405180910390a15050505600a165627a7a72305820140eafe10359255090ac304b06d0c40d5ffadbd4899d76a846e770100475d4860029",
  "source": "pragma solidity ^0.4.24;\n\ncontract Client1 {\n    /// callback that dispatch will call after a provider response\n    function callback(uint256 id, string response1) external;\n}\n\n// interface of Zap Dispatch contract, which escrows dots and routes queries\ninterface DispatchInterface {\n    // Routes a query through Dispatch to an oracle, passing in a query and endpoint specifiers\n    // This will consume 1 DOT\n    function query(address, string, bytes32, bytes32[], bool, bool) external returns (uint256);\n    // Cancels a query that has yet to be fulfilled, returning the DOT from escrow\n    function cancelQuery(uint256) external;\n}\n\ncontract ExampleSubscriber {\n\n\tevent SentQuery(uint256 queryId, string query, bytes32 endpoint, bytes32[] params);\n\tevent ReceivedResult(uint256 queryId, string result);\n\n\t/* instance of Zap Dispatch */\n\tDispatchInterface dispatch;\n\n\t/* address of the oracle to query */\n\taddress public oracle;\n\n\t/* Permissions */\n\taddress public owner;\n    modifier ownerOnly {\n        require(msg.sender == owner); \n        _;\n    }\n\n    /* Constructor defines the addresses of the dispatch and oracle */\n\tconstructor(address _dispatch, address _oracle) public{\n\t\tdispatch = DispatchInterface(_dispatch);\n\t\toracle = _oracle;\n\t\towner = msg.sender;\n\t}\n\n\t/* Simple query function consumes one DOT */\n\tfunction sendQuery(string query, bytes32 endpoint, bytes32[] params) external ownerOnly {\n\t\t// query call takes in an oracle address, query string, endpoint specifier, endpoint parameters,\n\t\t// and booleans for whether the provider and subscriber are on-chain or off-chain\n\t\tuint256 queryId = dispatch.query(oracle, query, endpoint, params, false, true);\n\t\t\n\t\temit SentQuery(queryId, query, endpoint, params);\n\t}\n\n\t/* Callback is called by Dispatch upon a response from the oracle */\n\tfunction callback(uint256 id, string response1) external {\n\t\trequire(msg.sender == address(dispatch));\n\n\t\t// do something with the data\n\t\temit ReceivedResult(id, response1);\n\t}\n\n}\n",
  "sourcePath": "/Users/michaelzman/Documents/workspace/zap-oracle-template/subscriber/deployment/contracts/ExampleSubscriber.sol",
  "compiler": {
    "name": "solc",
    "version": "0.4.24+commit.e67f0147.Emscripten.clang"
  },
  "schemaVersion": "2.0.0",
  "updatedAt": "2018-08-16T21:52:24.366Z"
}