{
  "contractName": "Faucet",
  "abi": [
    {
      "constant": true,
      "inputs": [],
      "name": "decimals",
      "outputs": [
        {
          "name": "",
          "type": "uint256"
        }
      ],
      "payable": false,
      "stateMutability": "view",
      "type": "function"
    },
    {
      "constant": true,
      "inputs": [],
      "name": "owner",
      "outputs": [
        {
          "name": "",
          "type": "address"
        }
      ],
      "payable": false,
      "stateMutability": "view",
      "type": "function"
    },
    {
      "constant": true,
      "inputs": [],
      "name": "tokenAddress",
      "outputs": [
        {
          "name": "",
          "type": "address"
        }
      ],
      "payable": false,
      "stateMutability": "view",
      "type": "function"
    },
    {
      "inputs": [
        {
          "name": "_token",
          "type": "address"
        },
        {
          "name": "_owner",
          "type": "address"
        },
        {
          "name": "_dispatch",
          "type": "address"
        },
        {
          "name": "_oracle",
          "type": "address"
        }
      ],
      "payable": false,
      "stateMutability": "nonpayable",
      "type": "constructor"
    },
    {
      "anonymous": false,
      "inputs": [
        {
          "indexed": false,
          "name": "queryID",
          "type": "uint256"
        },
        {
          "indexed": false,
          "name": "rate",
          "type": "uint256"
        }
      ],
      "name": "Rate",
      "type": "event"
    },
    {
      "anonymous": false,
      "inputs": [
        {
          "indexed": false,
          "name": "client",
          "type": "address"
        },
        {
          "indexed": false,
          "name": "eth",
          "type": "uint256"
        },
        {
          "indexed": false,
          "name": "zap",
          "type": "uint256"
        }
      ],
      "name": "Fulfilled",
      "type": "event"
    },
    {
      "anonymous": false,
      "inputs": [
        {
          "indexed": false,
          "name": "balance",
          "type": "uint256"
        },
        {
          "indexed": false,
          "name": "required",
          "type": "uint256"
        }
      ],
      "name": "EmptyFaucet",
      "type": "event"
    },
    {
      "constant": false,
      "inputs": [
        {
          "name": "_owner",
          "type": "address"
        }
      ],
      "name": "setOwner",
      "outputs": [],
      "payable": false,
      "stateMutability": "nonpayable",
      "type": "function"
    },
    {
      "constant": false,
      "inputs": [],
      "name": "withdrawTok",
      "outputs": [],
      "payable": false,
      "stateMutability": "nonpayable",
      "type": "function"
    },
    {
      "constant": false,
      "inputs": [],
      "name": "withdrawEther",
      "outputs": [],
      "payable": false,
      "stateMutability": "nonpayable",
      "type": "function"
    },
    {
      "constant": true,
      "inputs": [
        {
          "name": "id",
          "type": "uint256"
        }
      ],
      "name": "getOrder",
      "outputs": [
        {
          "name": "",
          "type": "address"
        },
        {
          "name": "",
          "type": "uint256"
        }
      ],
      "payable": false,
      "stateMutability": "view",
      "type": "function"
    },
    {
      "constant": false,
      "inputs": [],
      "name": "buyZap",
      "outputs": [],
      "payable": true,
      "stateMutability": "payable",
      "type": "function"
    },
    {
      "constant": false,
      "inputs": [
        {
          "name": "id",
          "type": "uint256"
        },
        {
          "name": "response",
          "type": "bytes32[]"
        }
      ],
      "name": "callback",
      "outputs": [],
      "payable": false,
      "stateMutability": "nonpayable",
      "type": "function"
    }
  ],
  "bytecode": "0x6080604052670de0b6b3a764000060035534801561001c57600080fd5b5060405160808061125a8339810180604052810190808051906020019092919080519060200190929190805190602001909291908051906020019092919050505083600260006101000a81548173ffffffffffffffffffffffffffffffffffffffff021916908373ffffffffffffffffffffffffffffffffffffffff160217905550836000806101000a81548173ffffffffffffffffffffffffffffffffffffffff021916908373ffffffffffffffffffffffffffffffffffffffff16021790555082600160006101000a81548173ffffffffffffffffffffffffffffffffffffffff021916908373ffffffffffffffffffffffffffffffffffffffff16021790555081600460006101000a81548173ffffffffffffffffffffffffffffffffffffffff021916908373ffffffffffffffffffffffffffffffffffffffff16021790555080600560006101000a81548173ffffffffffffffffffffffffffffffffffffffff021916908373ffffffffffffffffffffffffffffffffffffffff160217905550505050506110a6806101b46000396000f300608060405260043610610099576000357c0100000000000000000000000000000000000000000000000000000000900463ffffffff1680630f33a2a91461009e57806313af4035146100b5578063313ce567146100f857806363b41fe9146101235780637362377b1461016857806385a33e751461017f5780638da5cb5b146101895780639d76ea58146101e0578063d09ef24114610237575b600080fd5b3480156100aa57600080fd5b506100b36102ab565b005b3480156100c157600080fd5b506100f6600480360381019080803573ffffffffffffffffffffffffffffffffffffffff16906020019092919050505061057d565b005b34801561010457600080fd5b5061010d610659565b6040518082815260200191505060405180910390f35b34801561012f57600080fd5b506101666004803603810190808035906020019092919080359060200190820180359060200191909192939192939050505061065f565b005b34801561017457600080fd5b5061017d610bca565b005b610187610d04565b005b34801561019557600080fd5b5061019e610fa1565b604051808273ffffffffffffffffffffffffffffffffffffffff1673ffffffffffffffffffffffffffffffffffffffff16815260200191505060405180910390f35b3480156101ec57600080fd5b506101f5610fc7565b604051808273ffffffffffffffffffffffffffffffffffffffff1673ffffffffffffffffffffffffffffffffffffffff16815260200191505060405180910390f35b34801561024357600080fd5b5061026260048036038101908080359060200190929190505050610fed565b604051808373ffffffffffffffffffffffffffffffffffffffff1673ffffffffffffffffffffffffffffffffffffffff1681526020018281526020019250505060405180910390f35b600160009054906101000a900473ffffffffffffffffffffffffffffffffffffffff1673ffffffffffffffffffffffffffffffffffffffff163373ffffffffffffffffffffffffffffffffffffffff1614151561030757600080fd5b3373ffffffffffffffffffffffffffffffffffffffff16600160009054906101000a900473ffffffffffffffffffffffffffffffffffffffff1673ffffffffffffffffffffffffffffffffffffffff1614151561036357600080fd5b6000809054906101000a900473ffffffffffffffffffffffffffffffffffffffff1673ffffffffffffffffffffffffffffffffffffffff1663a9059cbb600160009054906101000a900473ffffffffffffffffffffffffffffffffffffffff166000809054906101000a900473ffffffffffffffffffffffffffffffffffffffff1673ffffffffffffffffffffffffffffffffffffffff166370a08231306040518263ffffffff167c0100000000000000000000000000000000000000000000000000000000028152600401808273ffffffffffffffffffffffffffffffffffffffff1673ffffffffffffffffffffffffffffffffffffffff168152602001915050602060405180830381600087803b15801561047f57600080fd5b505af1158015610493573d6000803e3d6000fd5b505050506040513d60208110156104a957600080fd5b81019080805190602001909291905050506040518363ffffffff167c0100000000000000000000000000000000000000000000000000000000028152600401808373ffffffffffffffffffffffffffffffffffffffff1673ffffffffffffffffffffffffffffffffffffffff16815260200182815260200192505050602060405180830381600087803b15801561053f57600080fd5b505af1158015610553573d6000803e3d6000fd5b505050506040513d602081101561056957600080fd5b810190808051906020019092919050505050565b600160009054906101000a900473ffffffffffffffffffffffffffffffffffffffff1673ffffffffffffffffffffffffffffffffffffffff163373ffffffffffffffffffffffffffffffffffffffff161415156105d957600080fd5b600073ffffffffffffffffffffffffffffffffffffffff168173ffffffffffffffffffffffffffffffffffffffff161415151561061557600080fd5b80600160006101000a81548173ffffffffffffffffffffffffffffffffffffffff021916908373ffffffffffffffffffffffffffffffffffffffff16021790555050565b60035481565b60008060008085856000818110151561067457fe5b9050602002013560001916600190049350600660008881526020019081526020016000206001015492506006600088815260200190815260200160002060000160009054906101000a900473ffffffffffffffffffffffffffffffffffffffff1691507f9de614b5c45179d41912c87ca7f7af67525f50c10b6b9cea79dc2c12b8d693a38785604051808381526020018281526020019250505060405180910390a160006006600089815260200190815260200160002060010154141561073a57600080fd5b600354610750858561104790919063ffffffff16565b81151561075957fe5b04905060006006600089815260200190815260200160002060000160006101000a81548173ffffffffffffffffffffffffffffffffffffffff021916908373ffffffffffffffffffffffffffffffffffffffff160217905550600060066000898152602001908152602001600020600101819055506000809054906101000a900473ffffffffffffffffffffffffffffffffffffffff1673ffffffffffffffffffffffffffffffffffffffff166370a08231306040518263ffffffff167c0100000000000000000000000000000000000000000000000000000000028152600401808273ffffffffffffffffffffffffffffffffffffffff1673ffffffffffffffffffffffffffffffffffffffff168152602001915050602060405180830381600087803b15801561088a57600080fd5b505af115801561089e573d6000803e3d6000fd5b505050506040513d60208110156108b457600080fd5b8101908080519060200190929190505050811115610a4d577f23be9261ea3a1652d787e9a3d166ddbd7d783646e7757ffdab71d14cf60a42e26000809054906101000a900473ffffffffffffffffffffffffffffffffffffffff1673ffffffffffffffffffffffffffffffffffffffff166370a08231306040518263ffffffff167c0100000000000000000000000000000000000000000000000000000000028152600401808273ffffffffffffffffffffffffffffffffffffffff1673ffffffffffffffffffffffffffffffffffffffff168152602001915050602060405180830381600087803b1580156109a957600080fd5b505af11580156109bd573d6000803e3d6000fd5b505050506040513d60208110156109d357600080fd5b810190808051906020019092919050505082604051808381526020018281526020019250505060405180910390a18173ffffffffffffffffffffffffffffffffffffffff166108fc849081150290604051600060405180830381858888f19350505050158015610a47573d6000803e3d6000fd5b50610bc1565b7f9fbd02fee182b5c51fdcdfbedd9b96716a141141d0cf550a8922f4f4350cd4b1828483604051808473ffffffffffffffffffffffffffffffffffffffff1673ffffffffffffffffffffffffffffffffffffffff168152602001838152602001828152602001935050505060405180910390a16000809054906101000a900473ffffffffffffffffffffffffffffffffffffffff1673ffffffffffffffffffffffffffffffffffffffff1663a9059cbb83836040518363ffffffff167c0100000000000000000000000000000000000000000000000000000000028152600401808373ffffffffffffffffffffffffffffffffffffffff1673ffffffffffffffffffffffffffffffffffffffff16815260200182815260200192505050602060405180830381600087803b158015610b8457600080fd5b505af1158015610b98573d6000803e3d6000fd5b505050506040513d6020811015610bae57600080fd5b8101908080519060200190929190505050505b50505050505050565b600160009054906101000a900473ffffffffffffffffffffffffffffffffffffffff1673ffffffffffffffffffffffffffffffffffffffff163373ffffffffffffffffffffffffffffffffffffffff16141515610c2657600080fd5b3373ffffffffffffffffffffffffffffffffffffffff16600160009054906101000a900473ffffffffffffffffffffffffffffffffffffffff1673ffffffffffffffffffffffffffffffffffffffff16141515610c8257600080fd5b600160009054906101000a900473ffffffffffffffffffffffffffffffffffffffff1673ffffffffffffffffffffffffffffffffffffffff166108fc3073ffffffffffffffffffffffffffffffffffffffff16319081150290604051600060405180830381858888f19350505050158015610d01573d6000803e3d6000fd5b50565b6060600080341115610f98576000604051908082528060200260200182016040528015610d405781602001602082028038833980820191505090505b509150600460009054906101000a900473ffffffffffffffffffffffffffffffffffffffff1673ffffffffffffffffffffffffffffffffffffffff16639f77d600600560009054906101000a900473ffffffffffffffffffffffffffffffffffffffff1684600060016040518563ffffffff167c0100000000000000000000000000000000000000000000000000000000028152600401808573ffffffffffffffffffffffffffffffffffffffff1673ffffffffffffffffffffffffffffffffffffffff16815260200180602001807f7a61707072696365000000000000000000000000000000000000000000000000815250602001806020018515151515815260200184151515158152602001838103835260038152602001807f4554480000000000000000000000000000000000000000000000000000000000815250602001838103825286818151815260200191508051906020019060200280838360005b83811015610ebd578082015181840152602081019050610ea2565b505050509050019650505050505050602060405180830381600087803b158015610ee657600080fd5b505af1158015610efa573d6000803e3d6000fd5b505050506040513d6020811015610f1057600080fd5b81019080805190602001909291905050509050336006600083815260200190815260200160002060000160006101000a81548173ffffffffffffffffffffffffffffffffffffffff021916908373ffffffffffffffffffffffffffffffffffffffff160217905550346006600083815260200190815260200160002060010181905550610f9d565b600080fd5b5050565b600160009054906101000a900473ffffffffffffffffffffffffffffffffffffffff1681565b600260009054906101000a900473ffffffffffffffffffffffffffffffffffffffff1681565b6000806006600084815260200190815260200160002060000160009054906101000a900473ffffffffffffffffffffffffffffffffffffffff16600660008581526020019081526020016000206001015491509150915091565b60008082840290506000841480611068575082848281151561106557fe5b04145b151561107057fe5b80915050929150505600a165627a7a7230582028e000c089d94931e7b29647a7de4b3804c5cdc3d146b9ad996681b31ad68cba0029",
  "source": "pragma solidity ^0.4.24;\n\nimport \"./dependencies/Client.sol\";\nimport \"./dependencies/DispatchInterface.sol\";\n\ncontract Token {\n    function transfer(address to, uint256 amount) public returns (bool);\n    function balanceOf(address addr) public view returns (uint256);\n}\n\nlibrary SafeMath {\n    function mul(uint256 a, uint256 b) internal pure returns (uint256) {\n        uint256 c = a * b;\n        assert(a == 0 || c / a == b);\n        return c;\n    }\n    function div(uint256 a, uint256 b) internal pure returns (uint256) {\n        // assert(b > 0); // Solidity automatically throws when dividing by 0\n        uint256 c = a / b;\n        // assert(a == b * c + a % b); // There is no case in which this doesn't hold\n        return c;\n    }\n    function sub(uint256 a, uint256 b) internal pure returns (uint256) {\n        assert(b <= a);\n        return a - b;\n    }\n    function add(uint256 a, uint256 b) internal pure returns (uint256) {\n        uint256 c = a + b;\n        assert(c >= a);\n        return c;\n    }\n}          \n\ncontract Faucet is ClientBytes32Array {\n    using SafeMath for uint256;\n\n    Token token;\n    address public owner;\n    address public tokenAddress;\n    uint public decimals = 10 ** 18;\n\n    DispatchInterface dispatch;\n \n    // Address of our price feed oracle\n    address oracleAddr;\n\n    event Rate(uint256 queryID, uint256 rate);\n    event Fulfilled(address client, uint256 eth, uint256 zap);\n    event EmptyFaucet(uint256 balance, uint256 required);\n\n    /* Represents one order */\n    struct Order {\n        address client;\n        uint256 eth_amount;\n    }\n\n    // mapping of addresses and Ether amounts (wei) to be fulfilled\n    mapping(uint256 => Order) private orderBook;\n\n    modifier ownerOnly {\n        require(msg.sender == owner); \n        _;\n    }\n\n    function setOwner(address _owner) public ownerOnly {\n        require(_owner != address(0));\n        owner = _owner;\n    }\n    \n    function withdrawTok() public ownerOnly {\n        if (owner != msg.sender) revert();\n        token.transfer(owner, token.balanceOf(this));        \n    }\n    \n    function withdrawEther() public ownerOnly {\n        if (owner != msg.sender) revert();\n        owner.transfer(address(this).balance);\n    }   \n\n    constructor(address _token, address _owner, address _dispatch, address _oracle) public {\n        tokenAddress = _token;\n        token = Token(_token);\n        owner = _owner;\n        dispatch = DispatchInterface(_dispatch);\n        oracleAddr = _oracle;\n    }\n    \n    function getOrder(uint256 id) public view returns (address, uint256){\n        return (orderBook[id].client, orderBook[id].eth_amount);\n    }\n\n    /* Payable function that returns an amount of Zap based on the current exchange rate */\n    function buyZap() public payable {\n        if(msg.value > 0) {\n            // query the price oracle\n            bytes32[] memory params = new bytes32[](0);\n            uint256 id = dispatch.query(oracleAddr, \"ETH\", \"zapprice\", params, false, true);\n            // put the order in the orderbook\n            orderBook[id].client = msg.sender;\n            orderBook[id].eth_amount = msg.value;\n        } else \n            revert();\n    }\n\n    // TO DO: SECURE IT!\n    /* Called upon the provider fulfilling the query, enabling the faucet to fulfill the buy request */\n    function callback(uint256 id, bytes32[] response) external {\n        uint256 rate = uint256(response[0]);\n        uint256 amount = orderBook[id].eth_amount;\n        address client = orderBook[id].client;\n\n        // publish the current exchange rate\n        emit Rate(id, rate);\n        \n        if(orderBook[id].eth_amount == 0) revert();\n        \n        uint256 weiZap = (amount).mul(rate) / decimals;\n\n        // remove order from orderBook\n        orderBook[id].client = 0;\n        orderBook[id].eth_amount = 0;\n\n        // if the Faucet is out, return the Eth\n        if(weiZap > token.balanceOf(this)){\n            emit EmptyFaucet(token.balanceOf(this), weiZap);\n            client.transfer(amount);\n            return;\n        }\n\n        // publish order\n        emit Fulfilled(client, amount, weiZap);\n\n        token.transfer(client, weiZap);\n    }\n}\n\n",
  "sourcePath": "/Users/michaelzman/Documents/workspace/zap-oracle-template/subscriber/deployment/contracts/Faucet.sol",
  "compiler": {
    "name": "solc",
    "version": "0.4.24+commit.e67f0147.Emscripten.clang"
  },
  "schemaVersion": "2.0.0",
  "updatedAt": "2018-08-02T23:08:12.189Z"
}