{
  "contractName": "Faucet",
  "abi": [
    {
      "constant": true,
      "inputs": [],
      "name": "decimals",
      "outputs": [
        {
          "name": "",
          "type": "uint256"
        }
      ],
      "payable": false,
      "stateMutability": "view",
      "type": "function"
    },
    {
      "constant": true,
      "inputs": [],
      "name": "owner",
      "outputs": [
        {
          "name": "",
          "type": "address"
        }
      ],
      "payable": false,
      "stateMutability": "view",
      "type": "function"
    },
    {
      "constant": true,
      "inputs": [],
      "name": "tokenAddress",
      "outputs": [
        {
          "name": "",
          "type": "address"
        }
      ],
      "payable": false,
      "stateMutability": "view",
      "type": "function"
    },
    {
      "constant": false,
      "inputs": [
        {
          "name": "newOwner",
          "type": "address"
        }
      ],
      "name": "transferOwnership",
      "outputs": [],
      "payable": false,
      "stateMutability": "nonpayable",
      "type": "function"
    },
    {
      "inputs": [
        {
          "name": "_coord",
          "type": "address"
        },
        {
          "name": "_oracle",
          "type": "address"
        }
      ],
      "payable": false,
      "stateMutability": "nonpayable",
      "type": "constructor"
    },
    {
      "anonymous": false,
      "inputs": [
        {
          "indexed": false,
          "name": "queryID",
          "type": "uint256"
        },
        {
          "indexed": false,
          "name": "rate",
          "type": "uint256"
        }
      ],
      "name": "Rate",
      "type": "event"
    },
    {
      "anonymous": false,
      "inputs": [
        {
          "indexed": false,
          "name": "client",
          "type": "address"
        },
        {
          "indexed": false,
          "name": "eth",
          "type": "uint256"
        },
        {
          "indexed": false,
          "name": "zap",
          "type": "uint256"
        }
      ],
      "name": "Fulfilled",
      "type": "event"
    },
    {
      "anonymous": false,
      "inputs": [
        {
          "indexed": false,
          "name": "balance",
          "type": "uint256"
        },
        {
          "indexed": false,
          "name": "required",
          "type": "uint256"
        }
      ],
      "name": "EmptyFaucet",
      "type": "event"
    },
    {
      "anonymous": false,
      "inputs": [
        {
          "indexed": true,
          "name": "previousOwner",
          "type": "address"
        },
        {
          "indexed": true,
          "name": "newOwner",
          "type": "address"
        }
      ],
      "name": "OwnershipTransferred",
      "type": "event"
    },
    {
      "constant": false,
      "inputs": [
        {
          "name": "newOracle",
          "type": "address"
        }
      ],
      "name": "refreshDependencies",
      "outputs": [],
      "payable": false,
      "stateMutability": "nonpayable",
      "type": "function"
    },
    {
      "constant": false,
      "inputs": [],
      "name": "withdrawTok",
      "outputs": [],
      "payable": false,
      "stateMutability": "nonpayable",
      "type": "function"
    },
    {
      "constant": false,
      "inputs": [],
      "name": "withdrawEther",
      "outputs": [],
      "payable": false,
      "stateMutability": "nonpayable",
      "type": "function"
    },
    {
      "constant": true,
      "inputs": [
        {
          "name": "id",
          "type": "uint256"
        }
      ],
      "name": "getOrder",
      "outputs": [
        {
          "name": "",
          "type": "address"
        },
        {
          "name": "",
          "type": "uint256"
        }
      ],
      "payable": false,
      "stateMutability": "view",
      "type": "function"
    },
    {
      "constant": false,
      "inputs": [],
      "name": "buyZap",
      "outputs": [],
      "payable": true,
      "stateMutability": "payable",
      "type": "function"
    },
    {
      "constant": false,
      "inputs": [
        {
          "name": "id",
          "type": "uint256"
        },
        {
          "name": "response",
          "type": "int256[]"
        }
      ],
      "name": "callback",
      "outputs": [],
      "payable": false,
      "stateMutability": "nonpayable",
      "type": "function"
    }
  ],
  "bytecode": "0x6080604052670de0b6b3a764000060035534801561001c57600080fd5b506040516040806117398339810180604052810190808051906020019092919080519060200190929190505050336000806101000a81548173ffffffffffffffffffffffffffffffffffffffff021916908373ffffffffffffffffffffffffffffffffffffffff16021790555081600460006101000a81548173ffffffffffffffffffffffffffffffffffffffff021916908373ffffffffffffffffffffffffffffffffffffffff160217905550600460009054906101000a900473ffffffffffffffffffffffffffffffffffffffff16600560006101000a81548173ffffffffffffffffffffffffffffffffffffffff021916908373ffffffffffffffffffffffffffffffffffffffff160217905550600560009054906101000a900473ffffffffffffffffffffffffffffffffffffffff1673ffffffffffffffffffffffffffffffffffffffff1663358177736040518163ffffffff167c01000000000000000000000000000000000000000000000000000000000281526004018080602001828103825260098152602001807f5a41505f544f4b454e0000000000000000000000000000000000000000000000815250602001915050602060405180830381600087803b1580156101ef57600080fd5b505af1158015610203573d6000803e3d6000fd5b505050506040513d602081101561021957600080fd5b8101908080519060200190929190505050600160006101000a81548173ffffffffffffffffffffffffffffffffffffffff021916908373ffffffffffffffffffffffffffffffffffffffff160217905550600560009054906101000a900473ffffffffffffffffffffffffffffffffffffffff1673ffffffffffffffffffffffffffffffffffffffff1663358177736040518163ffffffff167c01000000000000000000000000000000000000000000000000000000000281526004018080602001828103825260088152602001807f4449535041544348000000000000000000000000000000000000000000000000815250602001915050602060405180830381600087803b15801561032c57600080fd5b505af1158015610340573d6000803e3d6000fd5b505050506040513d602081101561035657600080fd5b8101908080519060200190929190505050600660006101000a81548173ffffffffffffffffffffffffffffffffffffffff021916908373ffffffffffffffffffffffffffffffffffffffff1602179055505050611381806103b86000396000f3006080604052600436106100a4576000357c0100000000000000000000000000000000000000000000000000000000900463ffffffff1680630f33a2a9146100a9578063313ce567146100c05780637362377b146100eb57806385a33e75146101025780638da5cb5b1461010c57806399ff48af146101635780639d76ea58146101a8578063a2577b66146101ff578063d09ef24114610242578063f2fde38b146102b6575b600080fd5b3480156100b557600080fd5b506100be6102f9565b005b3480156100cc57600080fd5b506100d56105ca565b6040518082815260200191505060405180910390f35b3480156100f757600080fd5b506101006105d0565b005b61010a610707565b005b34801561011857600080fd5b5061012161098a565b604051808273ffffffffffffffffffffffffffffffffffffffff1673ffffffffffffffffffffffffffffffffffffffff16815260200191505060405180910390f35b34801561016f57600080fd5b506101a6600480360381019080803590602001909291908035906020019082018035906020019190919293919293905050506109af565b005b3480156101b457600080fd5b506101bd610f71565b604051808273ffffffffffffffffffffffffffffffffffffffff1673ffffffffffffffffffffffffffffffffffffffff16815260200191505060405180910390f35b34801561020b57600080fd5b50610240600480360381019080803573ffffffffffffffffffffffffffffffffffffffff169060200190929190505050610f97565b005b34801561024e57600080fd5b5061026d60048036038101908080359060200190929190505050611173565b604051808373ffffffffffffffffffffffffffffffffffffffff1673ffffffffffffffffffffffffffffffffffffffff1681526020018281526020019250505060405180910390f35b3480156102c257600080fd5b506102f7600480360381019080803573ffffffffffffffffffffffffffffffffffffffff1690602001909291905050506111cd565b005b6000809054906101000a900473ffffffffffffffffffffffffffffffffffffffff1673ffffffffffffffffffffffffffffffffffffffff163373ffffffffffffffffffffffffffffffffffffffff1614151561035457600080fd5b3373ffffffffffffffffffffffffffffffffffffffff166000809054906101000a900473ffffffffffffffffffffffffffffffffffffffff1673ffffffffffffffffffffffffffffffffffffffff161415156103af57600080fd5b600160009054906101000a900473ffffffffffffffffffffffffffffffffffffffff1673ffffffffffffffffffffffffffffffffffffffff1663a9059cbb6000809054906101000a900473ffffffffffffffffffffffffffffffffffffffff16600160009054906101000a900473ffffffffffffffffffffffffffffffffffffffff1673ffffffffffffffffffffffffffffffffffffffff166370a08231306040518263ffffffff167c0100000000000000000000000000000000000000000000000000000000028152600401808273ffffffffffffffffffffffffffffffffffffffff1673ffffffffffffffffffffffffffffffffffffffff168152602001915050602060405180830381600087803b1580156104cc57600080fd5b505af11580156104e0573d6000803e3d6000fd5b505050506040513d60208110156104f657600080fd5b81019080805190602001909291905050506040518363ffffffff167c0100000000000000000000000000000000000000000000000000000000028152600401808373ffffffffffffffffffffffffffffffffffffffff1673ffffffffffffffffffffffffffffffffffffffff16815260200182815260200192505050602060405180830381600087803b15801561058c57600080fd5b505af11580156105a0573d6000803e3d6000fd5b505050506040513d60208110156105b657600080fd5b810190808051906020019092919050505050565b60035481565b6000809054906101000a900473ffffffffffffffffffffffffffffffffffffffff1673ffffffffffffffffffffffffffffffffffffffff163373ffffffffffffffffffffffffffffffffffffffff1614151561062b57600080fd5b3373ffffffffffffffffffffffffffffffffffffffff166000809054906101000a900473ffffffffffffffffffffffffffffffffffffffff1673ffffffffffffffffffffffffffffffffffffffff1614151561068657600080fd5b6000809054906101000a900473ffffffffffffffffffffffffffffffffffffffff1673ffffffffffffffffffffffffffffffffffffffff166108fc3073ffffffffffffffffffffffffffffffffffffffff16319081150290604051600060405180830381858888f19350505050158015610704573d6000803e3d6000fd5b50565b60606000803411156109815760006040519080825280602002602001820160405280156107435781602001602082028038833980820191505090505b509150600660009054906101000a900473ffffffffffffffffffffffffffffffffffffffff1673ffffffffffffffffffffffffffffffffffffffff16637de7cc66600760009054906101000a900473ffffffffffffffffffffffffffffffffffffffff16846040518363ffffffff167c0100000000000000000000000000000000000000000000000000000000028152600401808373ffffffffffffffffffffffffffffffffffffffff1673ffffffffffffffffffffffffffffffffffffffff16815260200180602001807f7a6170707269636500000000000000000000000000000000000000000000000081525060200180602001838103835260038152602001807f4554480000000000000000000000000000000000000000000000000000000000815250602001838103825284818151815260200191508051906020019060200280838360005b838110156108a857808201518184015260208101905061088d565b50505050905001945050505050602060405180830381600087803b1580156108cf57600080fd5b505af11580156108e3573d6000803e3d6000fd5b505050506040513d60208110156108f957600080fd5b81019080805190602001909291905050509050336008600083815260200190815260200160002060000160006101000a81548173ffffffffffffffffffffffffffffffffffffffff021916908373ffffffffffffffffffffffffffffffffffffffff160217905550346008600083815260200190815260200160002060010181905550610986565b600080fd5b5050565b6000809054906101000a900473ffffffffffffffffffffffffffffffffffffffff1681565b600080600080600660009054906101000a900473ffffffffffffffffffffffffffffffffffffffff1673ffffffffffffffffffffffffffffffffffffffff163373ffffffffffffffffffffffffffffffffffffffff16141515610a1157600080fd5b858560008181101515610a2057fe5b905060200201359350600860008881526020019081526020016000206001015492506008600088815260200190815260200160002060000160009054906101000a900473ffffffffffffffffffffffffffffffffffffffff1691507f9de614b5c45179d41912c87ca7f7af67525f50c10b6b9cea79dc2c12b8d693a38785604051808381526020018281526020019250505060405180910390a1600060086000898152602001908152602001600020600101541415610ade57600080fd5b600354610af4858561132290919063ffffffff16565b811515610afd57fe5b04905060006008600089815260200190815260200160002060000160006101000a81548173ffffffffffffffffffffffffffffffffffffffff021916908373ffffffffffffffffffffffffffffffffffffffff16021790555060006008600089815260200190815260200160002060010181905550600160009054906101000a900473ffffffffffffffffffffffffffffffffffffffff1673ffffffffffffffffffffffffffffffffffffffff166370a08231306040518263ffffffff167c0100000000000000000000000000000000000000000000000000000000028152600401808273ffffffffffffffffffffffffffffffffffffffff1673ffffffffffffffffffffffffffffffffffffffff168152602001915050602060405180830381600087803b158015610c2f57600080fd5b505af1158015610c43573d6000803e3d6000fd5b505050506040513d6020811015610c5957600080fd5b8101908080519060200190929190505050811115610df3577f23be9261ea3a1652d787e9a3d166ddbd7d783646e7757ffdab71d14cf60a42e2600160009054906101000a900473ffffffffffffffffffffffffffffffffffffffff1673ffffffffffffffffffffffffffffffffffffffff166370a08231306040518263ffffffff167c0100000000000000000000000000000000000000000000000000000000028152600401808273ffffffffffffffffffffffffffffffffffffffff1673ffffffffffffffffffffffffffffffffffffffff168152602001915050602060405180830381600087803b158015610d4f57600080fd5b505af1158015610d63573d6000803e3d6000fd5b505050506040513d6020811015610d7957600080fd5b810190808051906020019092919050505082604051808381526020018281526020019250505060405180910390a18173ffffffffffffffffffffffffffffffffffffffff166108fc849081150290604051600060405180830381858888f19350505050158015610ded573d6000803e3d6000fd5b50610f68565b7f9fbd02fee182b5c51fdcdfbedd9b96716a141141d0cf550a8922f4f4350cd4b1828483604051808473ffffffffffffffffffffffffffffffffffffffff1673ffffffffffffffffffffffffffffffffffffffff168152602001838152602001828152602001935050505060405180910390a1600160009054906101000a900473ffffffffffffffffffffffffffffffffffffffff1673ffffffffffffffffffffffffffffffffffffffff1663a9059cbb83836040518363ffffffff167c0100000000000000000000000000000000000000000000000000000000028152600401808373ffffffffffffffffffffffffffffffffffffffff1673ffffffffffffffffffffffffffffffffffffffff16815260200182815260200192505050602060405180830381600087803b158015610f2b57600080fd5b505af1158015610f3f573d6000803e3d6000fd5b505050506040513d6020811015610f5557600080fd5b8101908080519060200190929190505050505b50505050505050565b600260009054906101000a900473ffffffffffffffffffffffffffffffffffffffff1681565b6000809054906101000a900473ffffffffffffffffffffffffffffffffffffffff1673ffffffffffffffffffffffffffffffffffffffff163373ffffffffffffffffffffffffffffffffffffffff16141515610ff257600080fd5b80600760006101000a81548173ffffffffffffffffffffffffffffffffffffffff021916908373ffffffffffffffffffffffffffffffffffffffff160217905550600560009054906101000a900473ffffffffffffffffffffffffffffffffffffffff1673ffffffffffffffffffffffffffffffffffffffff1663358177736040518163ffffffff167c01000000000000000000000000000000000000000000000000000000000281526004018080602001828103825260088152602001807f4449535041544348000000000000000000000000000000000000000000000000815250602001915050602060405180830381600087803b1580156110f557600080fd5b505af1158015611109573d6000803e3d6000fd5b505050506040513d602081101561111f57600080fd5b8101908080519060200190929190505050600660006101000a81548173ffffffffffffffffffffffffffffffffffffffff021916908373ffffffffffffffffffffffffffffffffffffffff16021790555050565b6000806008600084815260200190815260200160002060000160009054906101000a900473ffffffffffffffffffffffffffffffffffffffff16600860008581526020019081526020016000206001015491509150915091565b6000809054906101000a900473ffffffffffffffffffffffffffffffffffffffff1673ffffffffffffffffffffffffffffffffffffffff163373ffffffffffffffffffffffffffffffffffffffff1614151561122857600080fd5b600073ffffffffffffffffffffffffffffffffffffffff168173ffffffffffffffffffffffffffffffffffffffff161415151561126457600080fd5b8073ffffffffffffffffffffffffffffffffffffffff166000809054906101000a900473ffffffffffffffffffffffffffffffffffffffff1673ffffffffffffffffffffffffffffffffffffffff167f8be0079c531659141344cd1fd0a4f28419497f9722a3daafe3b4186f6b6457e060405160405180910390a3806000806101000a81548173ffffffffffffffffffffffffffffffffffffffff021916908373ffffffffffffffffffffffffffffffffffffffff16021790555050565b60008082840290506000841480611343575082848281151561134057fe5b04145b151561134b57fe5b80915050929150505600a165627a7a723058203605d1c1f575372eb958d25881376401a433c267f6049f9be601709c663772650029",
  "source": "pragma solidity ^0.4.24;\n\n//==============================================================================================================\n// Dependencies\n//==============================================================================================================\n\ncontract Token {\n    function transfer(address to, uint256 amount) public returns (bool);\n    function balanceOf(address addr) public view returns (uint256);\n}\n\ncontract Ownable {\n    address public owner;\n    event OwnershipTransferred(address indexed previousOwner,address indexed newOwner);\n\n    /// @dev The Ownable constructor sets the original `owner` of the contract to the sender account.\n    constructor() public { owner = msg.sender; }\n\n    /// @dev Throws if called by any contract other than latest designated caller\n    modifier onlyOwner() {\n        require(msg.sender == owner);\n        _;\n    }\n\n    /// @dev Allows the current owner to transfer control of the contract to a newOwner.\n    /// @param newOwner The address to transfer ownership to.\n    function transferOwnership(address newOwner) public onlyOwner {\n       require(newOwner != address(0));\n       emit OwnershipTransferred(owner, newOwner);\n       owner = newOwner;\n    }\n}\n\n\ncontract ZapCoordinatorInterface is Ownable{\n\tfunction getContract(string contractName) public view returns (address);\n}\n\ninterface DispatchInterface {\n    function query(address, string, bytes32, bytes32[]) external returns (uint256);\n    function cancelQuery(uint256) external;\n}\n\ncontract ClientIntArray{\n    /// @dev callback that provider will call after Dispatch.query() call\n    /// @param id request id\n    /// @param response int array\n    function callback(uint256 id, int[] response) external;\n}\n\nlibrary SafeMath {\n    function mul(uint256 a, uint256 b) internal pure returns (uint256) {\n        uint256 c = a * b;\n        assert(a == 0 || c / a == b);\n        return c;\n    }\n    function div(uint256 a, uint256 b) internal pure returns (uint256) {\n        // assert(b > 0); // Solidity automatically throws when dividing by 0\n        uint256 c = a / b;\n        // assert(a == b * c + a % b); // There is no case in which this doesn't hold\n        return c;\n    }\n    function sub(uint256 a, uint256 b) internal pure returns (uint256) {\n        assert(b <= a);\n        return a - b;\n    }\n    function add(uint256 a, uint256 b) internal pure returns (uint256) {\n        uint256 c = a + b;\n        assert(c >= a);\n        return c;\n    }\n}          \n\n//==============================================================================================================\n// Faucet Contract\n//==============================================================================================================\n\ncontract Faucet is ClientIntArray, Ownable {\n    using SafeMath for uint256;\n\n    Token token;\n    address public tokenAddress;\n    uint public decimals = 10 ** 18;\n\n    address coordAddr;\n    ZapCoordinatorInterface coord;\n\n    DispatchInterface dispatch;\n \n    // Address of our price feed oracle\n    address oracleAddr;\n\n    event Rate(uint256 queryID, uint256 rate);\n    event Fulfilled(address client, uint256 eth, uint256 zap);\n    event EmptyFaucet(uint256 balance, uint256 required);\n\n    /* Represents one order */\n    struct Order {\n        address client;\n        uint256 eth_amount;\n    }\n\n    // mapping of addresses and Ether amounts (wei) to be fulfilled\n    mapping(uint256 => Order) private orderBook;\n\n    function refreshDependencies(address newOracle) public onlyOwner {\n    \toracleAddr = newOracle;\n    \tdispatch = DispatchInterface(coord.getContract(\"DISPATCH\"));\n    }\n\n    function withdrawTok() public onlyOwner {\n        if (owner != msg.sender) revert();\n        token.transfer(owner, token.balanceOf(this));        \n    }\n    \n    function withdrawEther() public onlyOwner {\n        if (owner != msg.sender) revert();\n        owner.transfer(address(this).balance);\n    }   \n\n    constructor(address _coord, address _oracle) public {\n    \tcoordAddr = _coord;\n    \tcoord = ZapCoordinatorInterface(coordAddr);\n\n        token = Token(coord.getContract(\"ZAP_TOKEN\"));\n        dispatch = DispatchInterface(coord.getContract(\"DISPATCH\"));\n    }\n\n    function getOrder(uint256 id) public view returns (address, uint256){\n        return (orderBook[id].client, orderBook[id].eth_amount);\n    }\n\n    /* Payable function that returns an amount of Zap based on the current exchange rate */\n    function buyZap() public payable {\n        if(msg.value > 0) {\n            // query the price oracle\n            bytes32[] memory params = new bytes32[](0);\n            uint256 id = dispatch.query(oracleAddr, \"ETH\", \"zapprice\", params);\n            // put the order in the orderbook\n            orderBook[id].client = msg.sender;\n            orderBook[id].eth_amount = msg.value;\n        } else \n            revert();\n    }\n\n    // TO DO: SECURE IT!\n    /* Called upon the provider fulfilling the query, enabling the faucet to fulfill the buy request */\n    function callback(uint256 id, int256[] response) external {\n        require(msg.sender == address(dispatch));\n        uint256 rate = uint256(response[0]);\n        uint256 amount = orderBook[id].eth_amount;\n        address client = orderBook[id].client;\n\n        // publish the current exchange rate\n        emit Rate(id, rate);\n        \n        if(orderBook[id].eth_amount == 0) revert();\n        \n        uint256 weiZap = (amount).mul(rate) / decimals;\n\n        // remove order from orderBook\n        orderBook[id].client = 0;\n        orderBook[id].eth_amount = 0;\n\n        // if the Faucet is out, return the Eth\n        if(weiZap > token.balanceOf(this)){\n            emit EmptyFaucet(token.balanceOf(this), weiZap);\n            client.transfer(amount);\n            return;\n        }\n\n        // publish order\n        emit Fulfilled(client, amount, weiZap);\n\n        token.transfer(client, weiZap);\n    }\n}",
  "sourcePath": "/Users/michaelzman/Documents/workspace/zap-oracle-template/subscriber/deployment/contracts/Faucet.sol",
  "compiler": {
    "name": "solc",
    "version": "0.4.24+commit.e67f0147.Emscripten.clang"
  },
  "schemaVersion": "2.0.0",
  "updatedAt": "2018-08-17T19:26:37.429Z"
}