{
  "contractName": "SimpleSubscriber",
  "abi": [
    {
      "constant": true,
      "inputs": [],
      "name": "oracle",
      "outputs": [
        {
          "name": "",
          "type": "address"
        }
      ],
      "payable": false,
      "stateMutability": "view",
      "type": "function"
    },
    {
      "constant": true,
      "inputs": [],
      "name": "owner",
      "outputs": [
        {
          "name": "",
          "type": "address"
        }
      ],
      "payable": false,
      "stateMutability": "view",
      "type": "function"
    },
    {
      "inputs": [
        {
          "name": "_dispatch",
          "type": "address"
        },
        {
          "name": "_oracle",
          "type": "address"
        }
      ],
      "payable": false,
      "stateMutability": "nonpayable",
      "type": "constructor"
    },
    {
      "anonymous": false,
      "inputs": [
        {
          "indexed": false,
          "name": "queryId",
          "type": "uint256"
        },
        {
          "indexed": false,
          "name": "query",
          "type": "string"
        },
        {
          "indexed": false,
          "name": "endpoint",
          "type": "bytes32"
        },
        {
          "indexed": false,
          "name": "params",
          "type": "bytes32[]"
        }
      ],
      "name": "SentQuery",
      "type": "event"
    },
    {
      "anonymous": false,
      "inputs": [
        {
          "indexed": false,
          "name": "queryId",
          "type": "uint256"
        },
        {
          "indexed": false,
          "name": "result",
          "type": "string"
        }
      ],
      "name": "ReceivedResult",
      "type": "event"
    },
    {
      "constant": false,
      "inputs": [],
      "name": "sendQuery",
      "outputs": [],
      "payable": false,
      "stateMutability": "nonpayable",
      "type": "function"
    },
    {
      "constant": false,
      "inputs": [
        {
          "name": "id",
          "type": "uint256"
        },
        {
          "name": "response1",
          "type": "string"
        }
      ],
      "name": "callback",
      "outputs": [],
      "payable": false,
      "stateMutability": "nonpayable",
      "type": "function"
    }
  ],
  "bytecode": "0x608060405234801561001057600080fd5b506040516040806106ef8339810180604052810190808051906020019092919080519060200190929190505050816000806101000a81548173ffffffffffffffffffffffffffffffffffffffff021916908373ffffffffffffffffffffffffffffffffffffffff16021790555080600160006101000a81548173ffffffffffffffffffffffffffffffffffffffff021916908373ffffffffffffffffffffffffffffffffffffffff16021790555033600260006101000a81548173ffffffffffffffffffffffffffffffffffffffff021916908373ffffffffffffffffffffffffffffffffffffffff16021790555050506105df806101106000396000f300608060405260043610610062576000357c0100000000000000000000000000000000000000000000000000000000900463ffffffff1680630e3ac78a146100675780637dc0d1d01461007e5780638da5cb5b146100d5578063b69a375d1461012c575b600080fd5b34801561007357600080fd5b5061007c610171565b005b34801561008a57600080fd5b506100936104ae565b604051808273ffffffffffffffffffffffffffffffffffffffff1673ffffffffffffffffffffffffffffffffffffffff16815260200191505060405180910390f35b3480156100e157600080fd5b506100ea6104d4565b604051808273ffffffffffffffffffffffffffffffffffffffff1673ffffffffffffffffffffffffffffffffffffffff16815260200191505060405180910390f35b34801561013857600080fd5b5061016f600480360381019080803590602001909291908035906020019082018035906020019190919293919293905050506104fa565b005b60606000600260009054906101000a900473ffffffffffffffffffffffffffffffffffffffff1673ffffffffffffffffffffffffffffffffffffffff163373ffffffffffffffffffffffffffffffffffffffff161415156101d157600080fd5b60006040519080825280602002602001820160405280156102015781602001602082028038833980820191505090505b5091506000809054906101000a900473ffffffffffffffffffffffffffffffffffffffff1673ffffffffffffffffffffffffffffffffffffffff16637de7cc66600160009054906101000a900473ffffffffffffffffffffffffffffffffffffffff16846040518363ffffffff167c0100000000000000000000000000000000000000000000000000000000028152600401808373ffffffffffffffffffffffffffffffffffffffff1673ffffffffffffffffffffffffffffffffffffffff16815260200180602001807f7a6170707269636500000000000000000000000000000000000000000000000081525060200180602001838103835260038152602001807f4554480000000000000000000000000000000000000000000000000000000000815250602001838103825284818151815260200191508051906020019060200280838360005b8381101561036557808201518184015260208101905061034a565b50505050905001945050505050602060405180830381600087803b15801561038c57600080fd5b505af11580156103a0573d6000803e3d6000fd5b505050506040513d60208110156103b657600080fd5b810190808051906020019092919050505090507fd6336b4382ff12f7254fd0ef411f9f3f1f02bedfe490b4ea7b6aafeebe6397ac81836040518083815260200180602001807f7a6170707269636500000000000000000000000000000000000000000000000081525060200180602001838103835260038152602001807f4554480000000000000000000000000000000000000000000000000000000000815250602001838103825284818151815260200191508051906020019060200280838360005b8381101561049557808201518184015260208101905061047a565b5050505090500194505050505060405180910390a15050565b600160009054906101000a900473ffffffffffffffffffffffffffffffffffffffff1681565b600260009054906101000a900473ffffffffffffffffffffffffffffffffffffffff1681565b6000809054906101000a900473ffffffffffffffffffffffffffffffffffffffff1673ffffffffffffffffffffffffffffffffffffffff163373ffffffffffffffffffffffffffffffffffffffff1614151561055557600080fd5b7fcfe284827a2f0c355ffb3714b432d7bdf3997822a0a4d2e2474539034eaaf96e83838360405180848152602001806020018281038252848482818152602001925080828437820191505094505050505060405180910390a15050505600a165627a7a72305820b1d174442aee3d223bcbdb943150bfaeaf680d01dfa78849d3073ae8bfb024bf0029",
  "source": "pragma solidity ^0.4.24;\n\ninterface Client1 {\n    /// callback that dispatch will call after a provider response\n    function callback(uint256 id, string response1) external;\n}\n\n// interface of Zap Dispatch contract, which escrows dots and routes queries\ninterface DispatchInterface {\n    // Routes a query through Dispatch to an oracle, passing in a query and endpoint specifiers\n    // This will consume 1 DOT\n    function query(address, string, bytes32, bytes32[]) external returns (uint256);\n    // Cancels a query that has yet to be fulfilled, returning the DOT from escrow\n    function cancelQuery(uint256) external;\n}\n\n/* Contract implements a basic Client1 and query/callback functionality */\ncontract SimpleSubscriber {\n\n\tevent SentQuery(uint256 queryId, string query, bytes32 endpoint, bytes32[] params);\n\tevent ReceivedResult(uint256 queryId, string result);\n\n\t/* instance of Zap Dispatch */\n\tDispatchInterface dispatch;\n\n\t/* address of the oracle to query */\n\taddress public oracle;\n\n\t/* Permissions */\n\taddress public owner;\n    \n    /* Constructor defines the addresses of the dispatch and oracle */\n\tconstructor(address _dispatch, address _oracle) public{\n\t\tdispatch = DispatchInterface(_dispatch);\n\t\toracle = _oracle;\n\t\towner = msg.sender;\n\t}\n\n\t/* Simple example query function to dispatch. Puts one DOT into escrow. \n\t * DOT is given to the oracle after the query is fulfilled */\n\tfunction sendQuery() external {\n\t\trequire(msg.sender == owner);\n\t\tbytes32[] memory arr = new bytes32[](0);\n\t\t// query call takes in an oracle address, query string, endpoint specifier, endpoint parameters (none for this query)\n\t\tuint256 queryId = dispatch.query(oracle, \"ETH\", \"zapprice\", arr);\n\t\t/*\n\t\t * query: \"ETH\" => base of exchange rate\n\t\t * endpoint: \"zapprice\" => endpoint specifier \n\t\t * endpoint parameters: [] => no endpoint parameters here (can be added for customized data)\n\t\t */\n\n\t\t// do something with queryId\n\t\temit SentQuery(queryId, \"ETH\", \"zapprice\", arr);\n\t}\n\n\t/* Callback is called by Dispatch upon a response from the oracle */\n\t/* Data from oracle will be sent through this function */\n\tfunction callback(uint256 id, string response1) external {\n\t\trequire(msg.sender == address(dispatch));\n\n\t\t// do something with the data\n\t\temit ReceivedResult(id, response1);\n\t}\n\n}\n",
  "sourcePath": "/Users/michaelzman/Documents/workspace/zap-oracle-template/subscriber/Faucet contract/contracts/SimpleSubscriber.sol",
  "compiler": {
    "name": "solc",
    "version": "0.4.24+commit.e67f0147.Emscripten.clang"
  },
  "schemaVersion": "2.0.0",
  "updatedAt": "2018-08-17T22:49:30.325Z"
}